{
  "_format": "hh-sol-artifact-1",
  "contractName": "ArbitarageFlashLoan",
  "sourceName": "contracts/ArbitarageFlashLoan.sol",
  "abi": [
    {
      "inputs": [
        {
          "internalType": "address",
          "name": "_addressProvider",
          "type": "address"
        }
      ],
      "stateMutability": "nonpayable",
      "type": "constructor"
    },
    {
      "anonymous": false,
      "inputs": [
        {
          "indexed": false,
          "internalType": "uint256",
          "name": "_amount0",
          "type": "uint256"
        },
        {
          "indexed": false,
          "internalType": "uint256",
          "name": "amount1",
          "type": "uint256"
        }
      ],
      "name": "LogAmounts",
      "type": "event"
    },
    {
      "anonymous": false,
      "inputs": [
        {
          "indexed": false,
          "internalType": "address",
          "name": "_addr1",
          "type": "address"
        },
        {
          "indexed": false,
          "internalType": "address",
          "name": "_addr2",
          "type": "address"
        },
        {
          "indexed": false,
          "internalType": "address",
          "name": "_addr3",
          "type": "address"
        },
        {
          "indexed": false,
          "internalType": "address",
          "name": "_addr4",
          "type": "address"
        },
        {
          "indexed": false,
          "internalType": "address",
          "name": "_sender",
          "type": "address"
        },
        {
          "indexed": false,
          "internalType": "uint256",
          "name": "_balance",
          "type": "uint256"
        },
        {
          "indexed": false,
          "internalType": "uint256",
          "name": "_allowance",
          "type": "uint256"
        }
      ],
      "name": "LogArbitarage",
      "type": "event"
    },
    {
      "anonymous": false,
      "inputs": [
        {
          "indexed": false,
          "internalType": "address",
          "name": "_addr1",
          "type": "address"
        },
        {
          "indexed": false,
          "internalType": "address",
          "name": "_addr2",
          "type": "address"
        },
        {
          "indexed": false,
          "internalType": "address",
          "name": "_addr3",
          "type": "address"
        },
        {
          "indexed": false,
          "internalType": "address",
          "name": "_addr4",
          "type": "address"
        }
      ],
      "name": "LogExecuteOperation",
      "type": "event"
    },
    {
      "anonymous": false,
      "inputs": [
        {
          "indexed": false,
          "internalType": "address",
          "name": "_addr1",
          "type": "address"
        },
        {
          "indexed": false,
          "internalType": "address",
          "name": "_addr2",
          "type": "address"
        },
        {
          "indexed": false,
          "internalType": "address",
          "name": "_addr3",
          "type": "address"
        },
        {
          "indexed": false,
          "internalType": "address",
          "name": "_addr4",
          "type": "address"
        }
      ],
      "name": "LogFlashLoan",
      "type": "event"
    },
    {
      "anonymous": false,
      "inputs": [
        {
          "indexed": false,
          "internalType": "string",
          "name": "_str",
          "type": "string"
        },
        {
          "indexed": false,
          "internalType": "address",
          "name": "_addr",
          "type": "address"
        },
        {
          "indexed": false,
          "internalType": "uint256",
          "name": "_amount",
          "type": "uint256"
        }
      ],
      "name": "LogFlashLoanBalance",
      "type": "event"
    },
    {
      "inputs": [],
      "name": "ADDRESSES_PROVIDER",
      "outputs": [
        {
          "internalType": "contract IPoolAddressesProvider",
          "name": "",
          "type": "address"
        }
      ],
      "stateMutability": "view",
      "type": "function"
    },
    {
      "inputs": [],
      "name": "POOL",
      "outputs": [
        {
          "internalType": "contract IPool",
          "name": "",
          "type": "address"
        }
      ],
      "stateMutability": "view",
      "type": "function"
    },
    {
      "inputs": [
        {
          "internalType": "address",
          "name": "asset",
          "type": "address"
        },
        {
          "internalType": "uint256",
          "name": "amount",
          "type": "uint256"
        },
        {
          "internalType": "uint256",
          "name": "premium",
          "type": "uint256"
        },
        {
          "internalType": "address",
          "name": "initiator",
          "type": "address"
        },
        {
          "internalType": "bytes",
          "name": "params",
          "type": "bytes"
        }
      ],
      "name": "executeOperation",
      "outputs": [
        {
          "internalType": "bool",
          "name": "",
          "type": "bool"
        }
      ],
      "stateMutability": "nonpayable",
      "type": "function"
    },
    {
      "inputs": [
        {
          "internalType": "address",
          "name": "_token0",
          "type": "address"
        },
        {
          "internalType": "address",
          "name": "_token1",
          "type": "address"
        },
        {
          "internalType": "address",
          "name": "_uniSwapRouter",
          "type": "address"
        },
        {
          "internalType": "address",
          "name": "_sushiSwapRouter",
          "type": "address"
        },
        {
          "internalType": "uint256",
          "name": "_amount",
          "type": "uint256"
        }
      ],
      "name": "fn_requestLoan",
      "outputs": [],
      "stateMutability": "nonpayable",
      "type": "function"
    },
    {
      "inputs": [],
      "name": "owner",
      "outputs": [
        {
          "internalType": "address payable",
          "name": "",
          "type": "address"
        }
      ],
      "stateMutability": "view",
      "type": "function"
    }
  ],
  "bytecode": "0x60c06040523480156200001157600080fd5b50604051620020ba380380620020ba8339818101604052810190620000379190620001c3565b808073ffffffffffffffffffffffffffffffffffffffff1660808173ffffffffffffffffffffffffffffffffffffffff16815250508073ffffffffffffffffffffffffffffffffffffffff1663026b1d5f6040518163ffffffff1660e01b8152600401602060405180830381865afa158015620000b8573d6000803e3d6000fd5b505050506040513d601f19601f82011682018060405250810190620000de9190620001c3565b73ffffffffffffffffffffffffffffffffffffffff1660a08173ffffffffffffffffffffffffffffffffffffffff168152505050336000806101000a81548173ffffffffffffffffffffffffffffffffffffffff021916908373ffffffffffffffffffffffffffffffffffffffff16021790555050620001f5565b600080fd5b600073ffffffffffffffffffffffffffffffffffffffff82169050919050565b60006200018b826200015e565b9050919050565b6200019d816200017e565b8114620001a957600080fd5b50565b600081519050620001bd8162000192565b92915050565b600060208284031215620001dc57620001db62000159565b5b6000620001ec84828501620001ac565b91505092915050565b60805160a051611e916200022960003960008181610322015281816105940152610633015260006101040152611e916000f3fe608060405234801561001057600080fd5b50600436106100575760003560e01c80630542975c1461005c5780631b11d0ff1461007a5780633fdd1309146100aa5780637535d246146100c65780638da5cb5b146100e4575b600080fd5b610064610102565b60405161007191906110ee565b60405180910390f35b610094600480360381019061008f91906111f6565b610126565b6040516100a191906112ab565b60405180910390f35b6100c460048036038101906100bf91906112c6565b6103b6565b005b6100ce610631565b6040516100db9190611362565b60405180910390f35b6100ec610655565b6040516100f9919061139e565b60405180910390f35b7f000000000000000000000000000000000000000000000000000000000000000081565b6000806000806000868681019061013d91906113e5565b93509350935093507f69eefa476368fd46a4b20be70d8d308b0aee7abf1e928ed29107bb52125000c78484848460405161017a949392919061145b565b60405180910390a17f64bc7247582c46d4ee554f3a5041fa1a590fde65a4b63befb699bf2c40a136ce308573ffffffffffffffffffffffffffffffffffffffff166370a08231306040518263ffffffff1660e01b81526004016101dd91906114a0565b602060405180830381865afa1580156101fa573d6000803e3d6000fd5b505050506040513d601f19601f8201168201806040525081019061021e91906114d0565b60405161022c929190611569565b60405180910390a17f64bc7247582c46d4ee554f3a5041fa1a590fde65a4b63befb699bf2c40a136ce308473ffffffffffffffffffffffffffffffffffffffff166370a08231306040518263ffffffff1660e01b815260040161028f91906114a0565b602060405180830381865afa1580156102ac573d6000803e3d6000fd5b505050506040513d601f19601f820116820180604052508101906102d091906114d0565b6040516102de929190611569565b60405180910390a16102f3848484858e610679565b506000898b61030291906115d4565b90508b73ffffffffffffffffffffffffffffffffffffffff1663095ea7b37f0000000000000000000000000000000000000000000000000000000000000000836040518363ffffffff1660e01b815260040161035f92919061162a565b6020604051808303816000875af115801561037e573d6000803e3d6000fd5b505050506040513d601f19601f820116820180604052508101906103a2919061167f565b506001955050505050509695505050505050565b6000309050600086905060008390506000888888886040516020016103de949392919061145b565b60405160208183030381529060405290507f93467e033b04e519819ce0178b5ce72632d3ad75bd4982392531b6645ebab29d89898989604051610424949392919061145b565b60405180910390a17f64bc7247582c46d4ee554f3a5041fa1a590fde65a4b63befb699bf2c40a136ce308a73ffffffffffffffffffffffffffffffffffffffff166370a08231306040518263ffffffff1660e01b815260040161048791906114a0565b602060405180830381865afa1580156104a4573d6000803e3d6000fd5b505050506040513d601f19601f820116820180604052508101906104c891906114d0565b6040516104d69291906116f8565b60405180910390a17f64bc7247582c46d4ee554f3a5041fa1a590fde65a4b63befb699bf2c40a136ce308973ffffffffffffffffffffffffffffffffffffffff166370a08231306040518263ffffffff1660e01b815260040161053991906114a0565b602060405180830381865afa158015610556573d6000803e3d6000fd5b505050506040513d601f19601f8201168201806040525081019061057a91906114d0565b6040516105889291906116f8565b60405180910390a160007f000000000000000000000000000000000000000000000000000000000000000073ffffffffffffffffffffffffffffffffffffffff166342b0b77c86868686866040518663ffffffff1660e01b81526004016105f39594939291906117ea565b600060405180830381600087803b15801561060d57600080fd5b505af1158015610621573d6000803e3d6000fd5b5050505050505050505050505050565b7f000000000000000000000000000000000000000000000000000000000000000081565b60008054906101000a900473ffffffffffffffffffffffffffffffffffffffff1681565b60008573ffffffffffffffffffffffffffffffffffffffff1663095ea7b385846040518363ffffffff1660e01b81526004016106b692919061162a565b6020604051808303816000875af11580156106d5573d6000803e3d6000fd5b505050506040513d601f19601f820116820180604052508101906106f9919061167f565b506060600267ffffffffffffffff81111561071757610716611844565b5b6040519080825280602002602001820160405280156107455781602001602082028036833780820191505090505b509050868160008151811061075d5761075c611873565b5b602002602001019073ffffffffffffffffffffffffffffffffffffffff16908173ffffffffffffffffffffffffffffffffffffffff168152505085816001815181106107ac576107ab611873565b5b602002602001019073ffffffffffffffffffffffffffffffffffffffff16908173ffffffffffffffffffffffffffffffffffffffff16815250507f9f95eceab2a64fe2cdd70230279a70583809695a361c1c54dcf3d2dd3b8aae878160008151811061081b5761081a611873565b5b60200260200101518260018151811061083757610836611873565b5b60200260200101518787338c73ffffffffffffffffffffffffffffffffffffffff166370a08231306040518263ffffffff1660e01b815260040161087b91906114a0565b602060405180830381865afa158015610898573d6000803e3d6000fd5b505050506040513d601f19601f820116820180604052508101906108bc91906114d0565b8d73ffffffffffffffffffffffffffffffffffffffff1663dd62ed3e308e6040518363ffffffff1660e01b81526004016108f79291906118a2565b602060405180830381865afa158015610914573d6000803e3d6000fd5b505050506040513d601f19601f8201168201806040525081019061093891906114d0565b60405161094b97969594939291906118cb565b60405180910390a160008573ffffffffffffffffffffffffffffffffffffffff166338ed17398560008530426040518663ffffffff1660e01b8152600401610997959493929190611a33565b6000604051808303816000875af11580156109b6573d6000803e3d6000fd5b505050506040513d6000823e3d601f19601f820116820180604052508101906109df9190611b9c565b90507f0e947074b9b85ef179fd4a442666a8a6cb6427a529e2ba6d882472f73532395781600081518110610a1657610a15611873565b5b602002602001015182600181518110610a3257610a31611873565b5b6020026020010151604051610a48929190611be5565b60405180910390a17f64bc7247582c46d4ee554f3a5041fa1a590fde65a4b63befb699bf2c40a136ce308973ffffffffffffffffffffffffffffffffffffffff166370a08231306040518263ffffffff1660e01b8152600401610aab91906114a0565b602060405180830381865afa158015610ac8573d6000803e3d6000fd5b505050506040513d601f19601f82011682018060405250810190610aec91906114d0565b604051610afa929190611c5a565b60405180910390a17f64bc7247582c46d4ee554f3a5041fa1a590fde65a4b63befb699bf2c40a136ce308873ffffffffffffffffffffffffffffffffffffffff166370a08231306040518263ffffffff1660e01b8152600401610b5d91906114a0565b602060405180830381865afa158015610b7a573d6000803e3d6000fd5b505050506040513d601f19601f82011682018060405250810190610b9e91906114d0565b604051610bac929190611c5a565b60405180910390a160006064600a83600181518110610bce57610bcd611873565b5b6020026020010151610be09190611c96565b610bea9190611d1f565b82600181518110610bfe57610bfd611873565b5b6020026020010151610c1091906115d4565b90508773ffffffffffffffffffffffffffffffffffffffff1663095ea7b387836040518363ffffffff1660e01b8152600401610c4d92919061162a565b6020604051808303816000875af1158015610c6c573d6000803e3d6000fd5b505050506040513d601f19601f82011682018060405250810190610c90919061167f565b506060600267ffffffffffffffff811115610cae57610cad611844565b5b604051908082528060200260200182016040528015610cdc5781602001602082028036833780820191505090505b5090508881600081518110610cf457610cf3611873565b5b602002602001019073ffffffffffffffffffffffffffffffffffffffff16908173ffffffffffffffffffffffffffffffffffffffff16815250508981600181518110610d4357610d42611873565b5b602002602001019073ffffffffffffffffffffffffffffffffffffffff16908173ffffffffffffffffffffffffffffffffffffffff168152505060008773ffffffffffffffffffffffffffffffffffffffff16638803dbee88858530426040518663ffffffff1660e01b8152600401610dc0959493929190611d50565b6000604051808303816000875af1158015610ddf573d6000803e3d6000fd5b505050506040513d6000823e3d601f19601f82011682018060405250810190610e089190611b9c565b90507f0e947074b9b85ef179fd4a442666a8a6cb6427a529e2ba6d882472f73532395781600081518110610e3f57610e3e611873565b5b602002602001015182600181518110610e5b57610e5a611873565b5b6020026020010151604051610e71929190611be5565b60405180910390a17f64bc7247582c46d4ee554f3a5041fa1a590fde65a4b63befb699bf2c40a136ce308c73ffffffffffffffffffffffffffffffffffffffff166370a08231306040518263ffffffff1660e01b8152600401610ed491906114a0565b602060405180830381865afa158015610ef1573d6000803e3d6000fd5b505050506040513d601f19601f82011682018060405250810190610f1591906114d0565b604051610f23929190611df6565b60405180910390a17f64bc7247582c46d4ee554f3a5041fa1a590fde65a4b63befb699bf2c40a136ce308b73ffffffffffffffffffffffffffffffffffffffff166370a08231306040518263ffffffff1660e01b8152600401610f8691906114a0565b602060405180830381865afa158015610fa3573d6000803e3d6000fd5b505050506040513d601f19601f82011682018060405250810190610fc791906114d0565b604051610fd5929190611df6565b60405180910390a18973ffffffffffffffffffffffffffffffffffffffff1663095ea7b38960006040518363ffffffff1660e01b8152600401611019929190611e32565b6020604051808303816000875af1158015611038573d6000803e3d6000fd5b505050506040513d601f19601f8201168201806040525081019061105c919061167f565b5060019550505050505095945050505050565b600073ffffffffffffffffffffffffffffffffffffffff82169050919050565b6000819050919050565b60006110b46110af6110aa8461106f565b61108f565b61106f565b9050919050565b60006110c682611099565b9050919050565b60006110d8826110bb565b9050919050565b6110e8816110cd565b82525050565b600060208201905061110360008301846110df565b92915050565b6000604051905090565b600080fd5b600080fd5b60006111288261106f565b9050919050565b6111388161111d565b811461114357600080fd5b50565b6000813590506111558161112f565b92915050565b6000819050919050565b61116e8161115b565b811461117957600080fd5b50565b60008135905061118b81611165565b92915050565b600080fd5b600080fd5b600080fd5b60008083601f8401126111b6576111b5611191565b5b8235905067ffffffffffffffff8111156111d3576111d2611196565b5b6020830191508360018202830111156111ef576111ee61119b565b5b9250929050565b60008060008060008060a0878903121561121357611212611113565b5b600061122189828a01611146565b965050602061123289828a0161117c565b955050604061124389828a0161117c565b945050606061125489828a01611146565b935050608087013567ffffffffffffffff81111561127557611274611118565b5b61128189828a016111a0565b92509250509295509295509295565b60008115159050919050565b6112a581611290565b82525050565b60006020820190506112c0600083018461129c565b92915050565b600080600080600060a086880312156112e2576112e1611113565b5b60006112f088828901611146565b955050602061130188828901611146565b945050604061131288828901611146565b935050606061132388828901611146565b92505060806113348882890161117c565b9150509295509295909350565b600061134c826110bb565b9050919050565b61135c81611341565b82525050565b60006020820190506113776000830184611353565b92915050565b60006113888261106f565b9050919050565b6113988161137d565b82525050565b60006020820190506113b3600083018461138f565b92915050565b6113c28161137d565b81146113cd57600080fd5b50565b6000813590506113df816113b9565b92915050565b600080600080608085870312156113ff576113fe611113565b5b600061140d878288016113d0565b945050602061141e878288016113d0565b935050604061142f878288016113d0565b9250506060611440878288016113d0565b91505092959194509250565b6114558161111d565b82525050565b6000608082019050611470600083018761144c565b61147d602083018661144c565b61148a604083018561144c565b611497606083018461144c565b95945050505050565b60006020820190506114b5600083018461144c565b92915050565b6000815190506114ca81611165565b92915050565b6000602082840312156114e6576114e5611113565b5b60006114f4848285016114bb565b91505092915050565b600082825260208201905092915050565b7f416674657220666c617368206c6f616e00000000000000000000000000000000600082015250565b60006115446010836114fd565b915061154f8261150e565b602082019050919050565b6115638161115b565b82525050565b6000606082019050818103600083015261158281611537565b9050611591602083018561144c565b61159e604083018461155a565b9392505050565b7f4e487b7100000000000000000000000000000000000000000000000000000000600052601160045260246000fd5b60006115df8261115b565b91506115ea8361115b565b9250827fffffffffffffffffffffffffffffffffffffffffffffffffffffffffffffffff0382111561161f5761161e6115a5565b5b828201905092915050565b600060408201905061163f600083018561144c565b61164c602083018461155a565b9392505050565b61165c81611290565b811461166757600080fd5b50565b60008151905061167981611653565b92915050565b60006020828403121561169557611694611113565b5b60006116a38482850161166a565b91505092915050565b7f4265666f726520666c617368206c6f616e000000000000000000000000000000600082015250565b60006116e26011836114fd565b91506116ed826116ac565b602082019050919050565b60006060820190508181036000830152611711816116d5565b9050611720602083018561144c565b61172d604083018461155a565b9392505050565b600081519050919050565b600082825260208201905092915050565b60005b8381101561176e578082015181840152602081019050611753565b8381111561177d576000848401525b50505050565b6000601f19601f8301169050919050565b600061179f82611734565b6117a9818561173f565b93506117b9818560208601611750565b6117c281611783565b840191505092915050565b600061ffff82169050919050565b6117e4816117cd565b82525050565b600060a0820190506117ff600083018861144c565b61180c602083018761144c565b611819604083018661155a565b818103606083015261182b8185611794565b905061183a60808301846117db565b9695505050505050565b7f4e487b7100000000000000000000000000000000000000000000000000000000600052604160045260246000fd5b7f4e487b7100000000000000000000000000000000000000000000000000000000600052603260045260246000fd5b60006040820190506118b7600083018561144c565b6118c4602083018461144c565b9392505050565b600060e0820190506118e0600083018a61144c565b6118ed602083018961144c565b6118fa604083018861144c565b611907606083018761144c565b611914608083018661144c565b61192160a083018561155a565b61192e60c083018461155a565b98975050505050505050565b6000819050919050565b600061195f61195a6119558461193a565b61108f565b61115b565b9050919050565b61196f81611944565b82525050565b600081519050919050565b600082825260208201905092915050565b6000819050602082019050919050565b6119aa8161111d565b82525050565b60006119bc83836119a1565b60208301905092915050565b6000602082019050919050565b60006119e082611975565b6119ea8185611980565b93506119f583611991565b8060005b83811015611a26578151611a0d88826119b0565b9750611a18836119c8565b9250506001810190506119f9565b5085935050505092915050565b600060a082019050611a48600083018861155a565b611a556020830187611966565b8181036040830152611a6781866119d5565b9050611a76606083018561144c565b611a83608083018461155a565b9695505050505050565b611a9682611783565b810181811067ffffffffffffffff82111715611ab557611ab4611844565b5b80604052505050565b6000611ac8611109565b9050611ad48282611a8d565b919050565b600067ffffffffffffffff821115611af457611af3611844565b5b602082029050602081019050919050565b6000611b18611b1384611ad9565b611abe565b90508083825260208201905060208402830185811115611b3b57611b3a61119b565b5b835b81811015611b645780611b5088826114bb565b845260208401935050602081019050611b3d565b5050509392505050565b600082601f830112611b8357611b82611191565b5b8151611b93848260208601611b05565b91505092915050565b600060208284031215611bb257611bb1611113565b5b600082015167ffffffffffffffff811115611bd057611bcf611118565b5b611bdc84828501611b6e565b91505092915050565b6000604082019050611bfa600083018561155a565b611c07602083018461155a565b9392505050565b7f416674657220756e695377617000000000000000000000000000000000000000600082015250565b6000611c44600d836114fd565b9150611c4f82611c0e565b602082019050919050565b60006060820190508181036000830152611c7381611c37565b9050611c82602083018561144c565b611c8f604083018461155a565b9392505050565b6000611ca18261115b565b9150611cac8361115b565b9250817fffffffffffffffffffffffffffffffffffffffffffffffffffffffffffffffff0483118215151615611ce557611ce46115a5565b5b828202905092915050565b7f4e487b7100000000000000000000000000000000000000000000000000000000600052601260045260246000fd5b6000611d2a8261115b565b9150611d358361115b565b925082611d4557611d44611cf0565b5b828204905092915050565b600060a082019050611d65600083018861155a565b611d72602083018761155a565b8181036040830152611d8481866119d5565b9050611d93606083018561144c565b611da0608083018461155a565b9695505050505050565b7f4166746572207375736869537761700000000000000000000000000000000000600082015250565b6000611de0600f836114fd565b9150611deb82611daa565b602082019050919050565b60006060820190508181036000830152611e0f81611dd3565b9050611e1e602083018561144c565b611e2b604083018461155a565b9392505050565b6000604082019050611e47600083018561144c565b611e546020830184611966565b939250505056fea26469706673582212205ed6329570aed22c234a73f5639668cfbf8557a3b344f2cc4e65c6fe5b52c5d964736f6c634300080a0033",
  "linkReferences": {},
  "deployedLinkReferences": {}
}